:100000000C9446000C9465000C9465000C946500FB
:100010000C9465000C9465000C9465000C946500CC
:100020000C9465000C9465000C9465000C946500BC
:100030000C9465000C945B010C9465000C946500B5
:100040000C9465000C9465000C9465000C9465009C
:100050000C9465000C9465000C9465000C9465008C
:100060000C9465000C9465000C9465000C9465007C
:100070000C9465000C9465000C9465000C9465006C
:100080000C9465000C9465000C94650011241FBE4F
:10009000CFEFD0E4DEBFCDBF15E0A0E0B1E0E2E9F4
:1000A000F4E100E00BBF02C007900D92AC39B1073C
:1000B000D9F725E0ACE9B5E001C01D92AD3BB20730
:1000C000E1F70E9429060C943F0A0C940000CF939C
:1000D000DF93D82FC0E013C0ED2FF0E0EE0FFF1F2D
:1000E000EE0FFF1FEE0FFF1FEB54FA4FEC0FF11D49
:1000F000108240E06C2F8D2F0E94FA07CF5FC8302E
:1001000058F3DF91CF9108950F931F93CF93DF930F
:10011000082FC62FD72F81111DC0182F19C0812F6E
:1001200090E0DE01A80FB91FE02FF0E02C91EE0F58
:10013000FF1FEE0FFF1FEE0FFF1FEB54FA4FE80FEC
:10014000F91F20834C91612F802F0E94FA071F5FB7
:10015000183028F3DF91CF911F910F9108958111ED
:1001600002C0683008F00895E82FF0E0EE0FFF1F9E
:10017000EE0FFF1FEE0FFF1FEB54FA4FE60FF11DBE
:1001800040830E94FA07EFCF962F6034E8F467703F
:10019000E82FF0E0EE0FFF1FEE0FFF1FEE0FFF1F27
:1001A000EB54FA4FE60FF11D2081442371F0969530
:1001B0009695969541E050E002C0440F551F9A95E0
:1001C000E2F7422B0E94AF0008959695969596957A
:1001D00041E050E002C0440F551F9A95E2F7409568
:1001E0004223F0CF41E00E94C400089540E00E9405
:1001F000C40008950E94B5070895CF930E941B087C
:10020000C0E028C0EC2FF0E0EE0FFF1FEE0FFF1F45
:10021000EE0FFF1FEB54FA4FE80FF11D10828F5FB6
:10022000883080F361E08C2F0E94AD0760E08C2F56
:100230000E94BD0760E08C2F0E94CD076FE08C2FDD
:100240000E94B50767E08C2F0E94C5078C2F0E9483
:100250006700CF5FCC2311F0CF9108958C2FE0CFB2
:100260008BE0809381008DE790E0909389008093EC
:10027000880082E080936F001092850010928400C5
:100280008091000190910101A0910201B0910301C0
:1002900080939C0590939D05A0939E05B0939F0528
:1002A0008FB780688FBF089510928100089581E014
:1002B0008093A00508951F920F920FB60F921124FC
:1002C0000BB60F922F933F934F935F936F937F9350
:1002D0008F939F93AF93BF93EF93FF9380919C0570
:1002E00090919D05A0919E05B0919F050197A10950
:1002F000B10980939C0590939D05A0939E05B093B2
:100300009F05892B8A2B8B2B99F0FF91EF91BF9141
:10031000AF919F918F917F916F915F914F913F919D
:100320002F910F900BBE0F900FBE0F901F9018953E
:100330000E9457018091000190910101A09102015A
:10034000B091030180939C0590939D05A0939E0519
:10035000B0939F05DACF6093000170930101809301
:1003600002019093030160939C0570939D05809317
:100370009E0590939F050895EAE7F0E08081806EE6
:10038000808308958370806480937C00EAE7F0E0C6
:1003900080818064808380917A0084FFFCCFEAE7CB
:1003A000F0E08081806180832091780090917900D5
:1003B000892F90E0982F8827820F911D0895CF9361
:1003C000DF9300D000D0CDB7DEB781E00E94C2013C
:1003D000282F392F8091B3059091B4058230910573
:1003E00009F45CC0A8F4009719F1019739F58091E0
:1003F000AD058130D1F1C9018C52914081399140D4
:10040000D8F182E090E09093B4058093B30516C0D4
:100410000397A1F4C9018D5291408F38914008F0A3
:1004200044C081E090E09093B4058093B30506C08A
:1004300081E090E09093B4058093B3058091B3057B
:100440009091B405029709F442C08091AE058130C5
:1004500029F08091AD05813009F052C00F900F90C6
:100460000F900F90DF91CF91089584E090E09093EA
:10047000B4058093B305E2CF8091AE05813039F0A9
:1004800081E090E09093B4058093B305D7CF84E0EA
:1004900090E09093B4058093B305D0CF83E090E0D3
:1004A0009093B4058093B305C9CF8091AE05813098
:1004B00039F083E090E09093B4058093B305BECF0C
:1004C00084E090E09093B4058093B305B7CF2D3BC3
:1004D000B2E03B0740F080910401803821F0880FA2
:1004E00080930401B2CF2C32314008F0AECF80911E
:1004F0000401813009F4A9CF869580930401A5CF2A
:100500008091A9059091AA05A091AB05B091AC0589
:10051000BC01CD0126E730E040E050E00E942E080B
:1005200069837A838B839C83E981FA81EB5DFA4F3F
:10053000408180910401482B67E080E00E94AF0079
:100540008DCF8F929F92AF92BF92CF92DF92EF9218
:10055000FF92CF93DF9300D000D0CDB7DEB780916C
:10056000B1059091B205009709F1019709F464C0B3
:100570008091B1059091B2058130910509F47EC159
:100580008230910509F4A1C2892B09F467C00F904C
:100590000F900F900F90DF91CF91FF90EF90DF9031
:1005A000CF90BF90AF909F908F9008958091AD05B0
:1005B0008130D9F18091A9059091AA05A091AB0550
:1005C000B091AC059C01AD012F5F3F4F4F4F5F4F86
:1005D0002093A9053093AA054093AB055093AC0531
:1005E000CA01B90126E730E040E050E00E942E0841
:1005F00069837A838B839C83E981FA81EB5DFA4F6F
:10060000908180910401892B981729F08091AE0583
:10061000813009F0ADCF81E08093AE0581E090E0BC
:100620009093B2058093B105A3CF82E090E09093C0
:10063000B2058093B105BECF8091AD05813039F010
:1006400081E090E09093B2058093B10591CF82E074
:1006500090E09093B2058093B1058ACF80E00E942C
:1006600067008091A9059091AA05A091AB05B09172
:10067000AC059C01AD01295F3F4F4F4F5F4F0F2EDF
:10068000F6E7CF2ED12CE12CF12CF02DCA01B901C7
:10069000A70196010E942E0869837A838B839C832D
:1006A000E981FA81EB5DFA4F408160E080E00E94D1
:1006B000AF008091A9059091AA05A091AB05B091DA
:1006C000AC059C01AD012A5F3F4F4F4F5F4FCA0100
:1006D000B901A70196010E942E0869837A838B8352
:1006E0009C83E981FA81EB5DFA4F408161E080E013
:1006F0000E94AF008091A9059091AA05A091AB0539
:10070000B091AC059C01AD012B5F3F4F4F4F5F4F48
:10071000CA01B901A70196010E942E0869837A8354
:100720008B839C83E981FA81EB5DFA4F408162E023
:1007300080E00E94AF008091A9059091AA05A09148
:10074000AB05B091AC059C01AD012C5F3F4F4F4F05
:100750005F4FCA01B901A70196010E942E08698363
:100760007A838B839C83E981FA81EB5DFA4F408128
:1007700063E080E00E94AF008091A9059091AA05F6
:10078000A091AB05B091AC059C01AD012D5F3F4F31
:100790004F4F5F4FCA01B901A70196010E942E0871
:1007A00069837A838B839C83E981FA81EB5DFA4FBD
:1007B000408164E080E00E94AF008091A9059091A3
:1007C000AA05A091AB05B091AC059C01AD012E5FCF
:1007D0003F4F4F4F5F4FCA01B901A70196010E94D9
:1007E0002E0869837A838B839C83E981FA81EB5D90
:1007F000FA4F408165E080E00E94AF008091A9053A
:100800009091AA05A091AB05B091AC059C01AD01FA
:100810002F5F3F4F4F4F5F4FCA01B901A7019601AC
:100820000E942E0869837A838B839C83E981FA81F5
:10083000EB5DFA4F408166E080E00E94AF0080915E
:10084000A9059091AA05A091AB05B091AC05BC019A
:10085000CD01A70196010E942E0869837A838B83BC
:100860009C83E981FA81EB5DFA4F4081809104011C
:10087000482B67E080E00E94AF0089CE8091A505FB
:100880009091A605A091A705B091A805892B8A2B68
:100890008B2B09F410C180E00E9467008091A905AC
:1008A0009091AA05A091AB05B091AC059C01AD015A
:1008B000295F3F4F4F4F5F4F0F2EF6E7CF2ED12CC2
:1008C000E12CF12CF02DCA01B901A70196010E947B
:1008D0002E0869837A838B839C83E981FA81EB5D9F
:1008E000FA4F408160E080E00E94AF008091A9054E
:1008F0009091AA05A091AB05B091AC059C01AD010A
:100900002A5F3F4F4F4F5F4FCA01B901A7019601C0
:100910000E942E0869837A838B839C83E981FA8104
:10092000EB5DFA4F408161E080E00E94AF00809172
:10093000A9059091AA05A091AB05B091AC059C01C9
:10094000AD012B5F3F4F4F4F5F4FCA01B901A70168
:1009500096010E942E0869837A838B839C83E981A8
:10096000FA81EB5DFA4F408162E080E00E94AF00C7
:100970008091A9059091AA05A091AB05B091AC0515
:100980009C01AD012C5F3F4F4F4F5F4FCA01B90132
:10099000A70196010E942E0869837A838B839C832A
:1009A000E981FA81EB5DFA4F408163E080E00E94CB
:1009B000AF008091A9059091AA05A091AB05B091D7
:1009C000AC059C01AD012D5F3F4F4F4F5F4FCA01FA
:1009D000B901A70196010E942E0869837A838B834F
:1009E0009C83E981FA81EB5DFA4F408164E080E00D
:1009F0000E94AF008091A9059091AA05A091AB0536
:100A0000B091AC059C01AD012E5F3F4F4F4F5F4F42
:100A1000CA01B901A70196010E942E0869837A8351
:100A20008B839C83E981FA81EB5DFA4F408165E01D
:100A300080E00E94AF008091A9059091AA05A09145
:100A4000AB05B091AC059C01AD012F5F3F4F4F4FFF
:100A50005F4FCA01B901A70196010E942E08698360
:100A60007A838B839C83E981FA81EB5DFA4F408125
:100A700066E080E00E94AF008091A9059091AA05F0
:100A8000A091AB05B091AC05BC01CD01A7019601C9
:100A90000E942E0869837A838B839C83E981FA8183
:100AA000EB5DFA4F408180910401482B67E080E0C4
:100AB0000E94AF006CCD80E00E946700409104016D
:100AC00067E080E00E94AF0062CD80E00E94670096
:100AD000812C912C54014DC0682D660F660F660F56
:100AE0006C0D80E00E94F6005FEFC51AD50AE50A9A
:100AF000F50A88E0C816D104E104F104ACF5809150
:100B0000A1059091A205A091A305B091A405A7010C
:100B10009601280F391F4A1F5B1FCA01B90122E441
:100B200030E040E050E00E942E0869837A838B8396
:100B30009C8382E4889DF001899DF00D11244981F8
:100B40005A81E40FF51FEE0FFF1FEB5FFE4F808110
:100B50009181892B09F2682D660F660F660F6C0D67
:100B600080E00E94F200C0CF9FEF891A990AA90A7B
:100B7000B90AA8E08A169104A104B10424F4C12C96
:100B8000D12C7601B6CF8091A1059091A205A091BC
:100B9000A305B091A4050196A11DB11D8093A105E7
:100BA0009093A205A093A305B093A405F0CC8091E7
:100BB000AF059091B00581309105D1F0823091055B
:100BC000F1F0892B39F08091AF059091B005019734
:100BD00021F10895309907C081E090E09093B0052D
:100BE0008093AF05F0CF1092B0051092AF05EBCF18
:100BF00082E090E09093B0058093AF05E4CF309B06
:100C000005C01092B0051092AF05DDCF82E090E0F4
:100C10009093B0058093AF05D6CF1092A90510929E
:100C2000AA051092AB051092AC051092AE05109279
:100C3000AD0580E1809304011092B4051092B305D4
:100C40001092B2051092B1050E94DF010E94A1022C
:100C5000C0CFCDB7DEB72A970FB6F894DEBF0FBE70
:100C6000CDBF11B88FEF82B984B915B817B888B95C
:100C70008AB91BB80E94FD000E94BC016AE070E0C6
:100C800080E090E00E94AB010E943001412C512C89
:100C90003201812C912C5401C12CD12C760166C0DB
:100CA00082E390E0A0E0B0E08D839E83AF83B887BD
:100CB000B8C00E94D7050E94DF01C12CD12C76015B
:100CC000CAC00E94A1028091A5059091A605A0919D
:100CD000A705B091A805892B8A2B8B2B61F0109268
:100CE000A5051092A6051092A7051092A805812CC3
:100CF000912C5401BAC081E090E0A0E0B0E0809374
:100D0000A5059093A605A093A705B093A805812CEF
:100D1000912C5401AAC081E08093AE058091A50575
:100D20009091A605A091A705B091A80589839A8303
:100D3000AB83BC83BC01CD010E94A102412C512C8C
:100D400032018091A0058823E1F31092A0059AE07A
:100D5000C90ED11CE11CF11CAAE08A0E911CA11C39
:100D6000B11CBAE04B0E511C611C711C8091A9058D
:100D70009091AA05A091AB05B091AC05BC01CD0145
:100D800026E730E040E050E00E942E0829833A83B5
:100D90004B835C83CA01B9010E941D09162F7A8713
:100DA0008987092F20E030E0A90169837A838B834A
:100DB0009C8369817A818B819C810E94A909181684
:100DC0001CF481E08093AD058091AD05813009F47C
:100DD00067CF20E030E048EC53E41983AA85AA836A
:100DE000B985BB830C8369817A818B819C810E9448
:100DF000AE09262F372F482F592F60E070E088EC7E
:100E000092E40E94780869837A838B839C8369814A
:100E10007A818B819C810E94EC086D837E838F8315
:100E2000988719839A859A83A985AB830C836981F6
:100E30007A818B819C810E94E5088FE090E002C05E
:100E4000880F991F6A95E2F785B9C114D104E104AE
:100E5000F10409F02ECF8D819E81AF81B88588166F
:100E60009906AA06BB0608F02CCF94E64916510451
:100E70006104710408F465CF8091AE05811161CFE2
:100E80008091A9059091AA05A091AB05B091AC0500
:100E9000BC01CD0126E730E040E050E00E942E0882
:100EA00069837A838B839C83E981FA81EB5DFA4FB6
:100EB000908180910401892B981709F42CCF412C43
:100EC000512C32013ECF98E007C02BB12D7F2BB9BA
:100ED0002BB128602BB991509923E9F0292F21508B
:100EE000330BB90141E050E002C0440F551F2A9571
:100EF000E2F7282F30E02423352302C035952795CB
:100F00006A95E2F73BB1377F3BB92223F1F22BB16F
:100F100022602BB9DDCF0895CF93DF93D82FC42F54
:100F2000882319F0DF91CF9108958BB18B7F8BB916
:100F3000862F0E9463078C2F0E946307CD2FCD1749
:100F400040F480E00E94630780E00E946307CF5F67
:100F5000F6CF8BB184608BB9E5CF623008F008958D
:100F6000462F6CE00E948C07FACF603108F008959C
:100F7000462F6AE00E948C07FACF623008F008958D
:100F8000462F6FE00E948C07FACF683008F0089572
:100F9000462F6BE00E948C07FACF462F69E00E9433
:100FA0008C070895462F61E00E948C070895462F14
:100FB00062E00E948C070895462F63E00E948C0730
:100FC0000895462F64E00E948C070895462F65E03F
:100FD0000E948C070895462F66E00E948C070895B2
:100FE000462F67E00E948C070895462F68E00E9414
:100FF0008C070895E62F642FE830E0F4F0E0EF5B13
:10100000F54F0C944D080E94D20708950E94D7070F
:1010100008950E94DC0708950E94E10708950E9448
:10102000E60708950E94EB0708950E94F0070895CF
:101030000E94F50708958AB182608AB98AB18860F2
:101040008AB98AB184608AB98BB18D7F8BB98BB133
:10105000877F8BB98BB18B7F8BB90895052E97FB5A
:101060001EF400940E94450857FD07D00E945608C0
:1010700007FC03D04EF40C944508509540953095EC
:1010800021953F4F4F4F5F4F0895909580957095F4
:1010900061957F4F8F4F9F4F0895EE0FFF1F0024E4
:1010A000001C0BBE0790F691E02D0994A1E21A2EC8
:1010B000AA1BBB1BFD010DC0AA1FBB1FEE1FFF1FFC
:1010C000A217B307E407F50720F0A21BB30BE40B4C
:1010D000F50B661F771F881F991F1A9469F7609593
:1010E0007095809590959B01AC01BD01CF0108954D
:1010F0005058BB27AA270E9490080C946F090E94A1
:10110000610938F00E94680920F039F49F3F19F412
:1011100026F40C945E090EF4E095E7FB0C94580954
:10112000E92F0E94800958F3BA17620773078407F2
:10113000950720F079F4A6F50C94A2090EF4E09539
:101140000B2EBA2FA02D0B01B90190010C01CA0181
:10115000A0011124FF27591B99F0593F50F4503E2C
:1011600068F11A16F040A22F232F342F4427585F1E
:10117000F3CF469537952795A795F0405395C9F736
:101180007EF41F16BA0B620B730B840BBAF09150EE
:10119000A1F0FF0FBB1F661F771F881FC2F70EC08D
:1011A000BA0F621F731F841F48F487957795679560
:1011B000B795F7959E3F08F0B0CF9395880F08F04C
:1011C0009927EE0F9795879508950E94EC086894EB
:1011D000B1110C94A30908950E94880988F09F57C3
:1011E00098F0B92F9927B751B0F0E1F0660F771F4B
:1011F000881F991F1AF0BA95C9F714C0B13091F041
:101200000E94A209B1E008950C94A209672F782FDB
:101210008827B85F39F0B93FCCF386957795679505
:10122000B395D9F73EF490958095709561957F4F71
:101230008F4F9F4F0895E89409C097FB3EF4909517
:101240008095709561957F4F8F4F9F4F9923A9F09F
:10125000F92F96E9BB279395F6958795779567952E
:10126000B795F111F8CFFAF4BB0F11F460FF1BC072
:101270006F5F7F4F8F4F9F4F16C0882311F096E905
:1012800011C0772321F09EE8872F762F05C06623B3
:1012900071F096E8862F70E060E02AF09A95660F6C
:1012A000771F881FDAF7880F9695879597F9089525
:1012B00097F99F6780E870E060E008959FEF80EC09
:1012C000089500240A9416161706180609060895AC
:1012D00000240A9412161306140605060895092E12
:1012E0000394000C11F4882352F0BB0F40F4BF2B81
:1012F00011F460FF04C06F5F7F4F8F4F9F4F0895C1
:1013000057FD9058440F551F59F05F3F71F04795B6
:10131000880F97FB991F61F09F3F79F0879508959B
:10132000121613061406551FF2CF4695F1DF08C0BA
:10133000161617061806991FF1CF869571056105D7
:1013400008940895E894BB2766277727CB0197F97F
:1013500008950E941B0A08F48FEF08950E94C109A6
:101360000C946F090E94610938F00E94680920F00E
:10137000952311F00C9458090C945E0911240C94D7
:10138000A3090E94800970F3959FC1F3950F50E067
:10139000551F629FF001729FBB27F00DB11D639F27
:1013A000AA27F00DB11DAA1F649F6627B00DA11DCD
:1013B000661F829F2227B00DA11D621F739FB00D73
:1013C000A11D621F839FA00D611D221F749F3327E3
:1013D000A00D611D231F849F600D211D822F762F7C
:1013E0006A2F11249F5750409AF0F1F088234AF059
:1013F000EE0FFF1FBB1F661F771F881F91505040C5
:10140000A9F79E3F510580F00C9458090C94A3094C
:101410005F3FE4F3983ED4F3869577956795B7954B
:10142000F795E7959F5FC1F7FE2B880F911D969565
:10143000879597F90895990F0008550FAA0BE0E8D2
:10144000FEEF16161706E807F907C0F01216130686
:10145000E407F50798F0621B730B840B950B39F4C6
:101460000A2661F0232B242B252B21F408950A262C
:1014700009F4A140A6958FEF811D811D0895F89470
:10148000FFCF0308060809080C080F081208150802
:0214900018083A
:101492000100000010000001000000000000000038
:1014A2000000000100000000000000000001000137
:1014B2000001000000000000000100000000000028
:1014C2000000000100000000000000000001000018
:1014D2000000000000000000000100000000000009
:1014E20000000001000000000000000000010000F8
:1014F20000000000000000010000000000010001E7
:1015020000010001000100000000000100000000D5
:1015120000000000000000010000000000010000C7
:1015220000000000000100000000000000000001B7
:1015320000000000000000010000000000010000A7
:101542000000000000000001000000000000000098
:101552000000000000000000000000000000000089
:101562000000000000000001000000000000000078
:101572000001000000000000000000010000000067
:101582000000000000010000000000000000000157
:101592000001000000000000000000010000000047
:1015A2000000000100000001000000000000000037
:1015B2000001000000000000000000000001000027
:1015C2000001000000000000000000010000000017
:1015D2000000000000000000000000000000000009
:1015E20000000000000000000000000100000000F8
:1015F20000000000000100000000000000000001E7
:1016020000000000000000000001000000000000D7
:1016120000000001000000010000000000000001C5
:1016220000000000000000000001000000000000B7
:1016320000000000000100000000000000000000A7
:101642000001000000010000000000000000000195
:101652000000000100000000000000000000000186
:101662000000000000000000000000010000000176
:101672000000000000000000000100000000000067
:101682000000000100000000000000000001000056
:101692000000000000000001000000000001000046
:1016A2000000000100000000000000000001000036
:1016B2000000000000000000000100000000000027
:1016C2000000000000010000000100000000000016
:1016D2000000000100000000000100000000000006
:1016E20000000000000000000000000000010000F7
:1016F20000000001000000000000000000010000E6
:1017020000000000000000010000000000000000D6
:1017120000010000000000000000000100000000C5
:1017220000000001000000010000000000000000B5
:1017320000010000000000000000000000000001A5
:101742000000000000000001000000000000000195
:101752000000000000010000000000000000000185
:101762000000000000000000000000000000000176
:101772000000000000000000000100000000000165
:101782000000000100000000000100000000000055
:101792000000000000010000000000000000000145
:1017A2000000000000000000000100010000000035
:1017B2000000000000010000000000000000000026
:1017C2000000000000010001000100000000000014
:1017D2000000000000010001000000000000000005
:1017E20000000000000100010001000100010001F1
:1017F20000010000000000000000000000000001E5
:1018020000010000000000000001000100000000D3
:1018120000000000000100010001000100010000C1
:1018220000000001000000000000000000000001B4
:1018320000000000000000000000000000000000A6
:101842000000000000000000000000000000000096
:101852000000000000000000000000000000000086
:101862000000000000000000000000000000000076
:101872000000000000000000000000000000000066
:101882000000000000000000000000000000000056
:101892000000000000000000000000000000000046
:1018A2000000000000000000000000000000000036
:1018B20000000000000000000000000000C700005F
:1018C20000FB0000007F00000000EF000000BF00EE
:1018D2000000FD000000BF000000FE000000EF005D
:1018E2000000DF0000FD0000000000000000CF004B
:1018F20000FB00007F0000EF0000BF0000FD0000C1
:10190200DF0000FB0000EF0000DF0000FE0000002F
:101912000000000000EF00FB00DF00EF00BF007FCF
:0C19220000DF00F700EF0000DF007B009A
:04000005008005A1D1
:00000001FF
